{
  "contractName": "MyNFT",
  "abi": [
    {
      "inputs": [],
      "stateMutability": "nonpayable",
      "type": "constructor"
    },
    {
      "anonymous": false,
      "inputs": [
        {
          "indexed": true,
          "internalType": "address",
          "name": "owner",
          "type": "address"
        },
        {
          "indexed": true,
          "internalType": "address",
          "name": "spender",
          "type": "address"
        },
        {
          "indexed": false,
          "internalType": "uint256",
          "name": "value",
          "type": "uint256"
        }
      ],
      "name": "Approval",
      "type": "event"
    },
    {
      "anonymous": false,
      "inputs": [
        {
          "indexed": true,
          "internalType": "address",
          "name": "from",
          "type": "address"
        },
        {
          "indexed": true,
          "internalType": "address",
          "name": "to",
          "type": "address"
        },
        {
          "indexed": false,
          "internalType": "uint256",
          "name": "value",
          "type": "uint256"
        }
      ],
      "name": "Transfer",
      "type": "event"
    },
    {
      "inputs": [
        {
          "internalType": "address",
          "name": "owner",
          "type": "address"
        },
        {
          "internalType": "address",
          "name": "spender",
          "type": "address"
        }
      ],
      "name": "allowance",
      "outputs": [
        {
          "internalType": "uint256",
          "name": "",
          "type": "uint256"
        }
      ],
      "stateMutability": "view",
      "type": "function"
    },
    {
      "inputs": [
        {
          "internalType": "address",
          "name": "spender",
          "type": "address"
        },
        {
          "internalType": "uint256",
          "name": "amount",
          "type": "uint256"
        }
      ],
      "name": "approve",
      "outputs": [
        {
          "internalType": "bool",
          "name": "",
          "type": "bool"
        }
      ],
      "stateMutability": "nonpayable",
      "type": "function"
    },
    {
      "inputs": [
        {
          "internalType": "address",
          "name": "account",
          "type": "address"
        }
      ],
      "name": "balanceOf",
      "outputs": [
        {
          "internalType": "uint256",
          "name": "",
          "type": "uint256"
        }
      ],
      "stateMutability": "view",
      "type": "function"
    },
    {
      "inputs": [],
      "name": "decimals",
      "outputs": [
        {
          "internalType": "uint8",
          "name": "",
          "type": "uint8"
        }
      ],
      "stateMutability": "view",
      "type": "function"
    },
    {
      "inputs": [
        {
          "internalType": "address",
          "name": "spender",
          "type": "address"
        },
        {
          "internalType": "uint256",
          "name": "subtractedValue",
          "type": "uint256"
        }
      ],
      "name": "decreaseAllowance",
      "outputs": [
        {
          "internalType": "bool",
          "name": "",
          "type": "bool"
        }
      ],
      "stateMutability": "nonpayable",
      "type": "function"
    },
    {
      "inputs": [
        {
          "internalType": "address",
          "name": "spender",
          "type": "address"
        },
        {
          "internalType": "uint256",
          "name": "addedValue",
          "type": "uint256"
        }
      ],
      "name": "increaseAllowance",
      "outputs": [
        {
          "internalType": "bool",
          "name": "",
          "type": "bool"
        }
      ],
      "stateMutability": "nonpayable",
      "type": "function"
    },
    {
      "inputs": [],
      "name": "name",
      "outputs": [
        {
          "internalType": "string",
          "name": "",
          "type": "string"
        }
      ],
      "stateMutability": "view",
      "type": "function"
    },
    {
      "inputs": [],
      "name": "symbol",
      "outputs": [
        {
          "internalType": "string",
          "name": "",
          "type": "string"
        }
      ],
      "stateMutability": "view",
      "type": "function"
    },
    {
      "inputs": [],
      "name": "totalSupply",
      "outputs": [
        {
          "internalType": "uint256",
          "name": "",
          "type": "uint256"
        }
      ],
      "stateMutability": "view",
      "type": "function"
    },
    {
      "inputs": [
        {
          "internalType": "address",
          "name": "to",
          "type": "address"
        },
        {
          "internalType": "uint256",
          "name": "amount",
          "type": "uint256"
        }
      ],
      "name": "transfer",
      "outputs": [
        {
          "internalType": "bool",
          "name": "",
          "type": "bool"
        }
      ],
      "stateMutability": "nonpayable",
      "type": "function"
    },
    {
      "inputs": [
        {
          "internalType": "address",
          "name": "from",
          "type": "address"
        },
        {
          "internalType": "address",
          "name": "to",
          "type": "address"
        },
        {
          "internalType": "uint256",
          "name": "amount",
          "type": "uint256"
        }
      ],
      "name": "transferFrom",
      "outputs": [
        {
          "internalType": "bool",
          "name": "",
          "type": "bool"
        }
      ],
      "stateMutability": "nonpayable",
      "type": "function"
    },
    {
      "inputs": [
        {
          "internalType": "uint256",
          "name": "amountToBeMinted",
          "type": "uint256"
        }
      ],
      "name": "checkMintable",
      "outputs": [
        {
          "internalType": "bool",
          "name": "",
          "type": "bool"
        }
      ],
      "stateMutability": "view",
      "type": "function"
    },
    {
      "inputs": [
        {
          "internalType": "address",
          "name": "destination",
          "type": "address"
        },
        {
          "internalType": "uint256",
          "name": "amount",
          "type": "uint256"
        }
      ],
      "name": "myMinting",
      "outputs": [
        {
          "internalType": "bool",
          "name": "",
          "type": "bool"
        }
      ],
      "stateMutability": "nonpayable",
      "type": "function"
    }
  ],
  "bytecode": "0x608060405233600560006101000a81548173ffffffffffffffffffffffffffffffffffffffff021916908373ffffffffffffffffffffffffffffffffffffffff160217905550620f42406006553480156200005957600080fd5b506040518060400160405280600481526020017f476f6c64000000000000000000000000000000000000000000000000000000008152506040518060400160405280600381526020017f474c4400000000000000000000000000000000000000000000000000000000008152508160039080519060200190620000de92919062000100565b508060049080519060200190620000f792919062000100565b50505062000215565b8280546200010e90620001df565b90600052602060002090601f0160209004810192826200013257600085556200017e565b82601f106200014d57805160ff19168380011785556200017e565b828001600101855582156200017e579182015b828111156200017d57825182559160200191906001019062000160565b5b5090506200018d919062000191565b5090565b5b80821115620001ac57600081600090555060010162000192565b5090565b7f4e487b7100000000000000000000000000000000000000000000000000000000600052602260045260246000fd5b60006002820490506001821680620001f857607f821691505b602082108114156200020f576200020e620001b0565b5b50919050565b61154680620002256000396000f3fe608060405234801561001057600080fd5b50600436106100cf5760003560e01c8063395093511161008c57806395d89b411161006657806395d89b411461024e578063a457c2d71461026c578063a9059cbb1461029c578063dd62ed3e146102cc576100cf565b806339509351146101be57806346b74672146101ee57806370a082311461021e576100cf565b806306fdde03146100d4578063095ea7b3146100f257806318160ddd1461012257806323b872dd14610140578063313ce5671461017057806337a8dce71461018e575b600080fd5b6100dc6102fc565b6040516100e99190610d67565b60405180910390f35b61010c60048036038101906101079190610e22565b61038e565b6040516101199190610e7d565b60405180910390f35b61012a6103b1565b6040516101379190610ea7565b60405180910390f35b61015a60048036038101906101559190610ec2565b6103bb565b6040516101679190610e7d565b60405180910390f35b6101786103ea565b6040516101859190610f31565b60405180910390f35b6101a860048036038101906101a39190610f4c565b6103f3565b6040516101b59190610e7d565b60405180910390f35b6101d860048036038101906101d39190610e22565b610429565b6040516101e59190610e7d565b60405180910390f35b61020860048036038101906102039190610e22565b610460565b6040516102159190610e7d565b60405180910390f35b61023860048036038101906102339190610f79565b610489565b6040516102459190610ea7565b60405180910390f35b6102566104d1565b6040516102639190610d67565b60405180910390f35b61028660048036038101906102819190610e22565b610563565b6040516102939190610e7d565b60405180910390f35b6102b660048036038101906102b19190610e22565b6105da565b6040516102c39190610e7d565b60405180910390f35b6102e660048036038101906102e19190610fa6565b6105fd565b6040516102f39190610ea7565b60405180910390f35b60606003805461030b90611015565b80601f016020809104026020016040519081016040528092919081815260200182805461033790611015565b80156103845780601f1061035957610100808354040283529160200191610384565b820191906000526020600020905b81548152906001019060200180831161036757829003601f168201915b5050505050905090565b600080610399610684565b90506103a681858561068c565b600191505092915050565b6000600254905090565b6000806103c6610684565b90506103d3858285610857565b6103de8585856108e3565b60019150509392505050565b60006012905090565b600080826006546104049190611076565b61040c6103b1565b111561041b5760009050610420565b600190505b80915050919050565b600080610434610684565b905061045581858561044685896105fd565b6104509190611076565b61068c565b600191505092915050565b600061046b826103f3565b61047457600080fd5b61047f836064610b64565b6001905092915050565b60008060008373ffffffffffffffffffffffffffffffffffffffff1673ffffffffffffffffffffffffffffffffffffffff168152602001908152602001600020549050919050565b6060600480546104e090611015565b80601f016020809104026020016040519081016040528092919081815260200182805461050c90611015565b80156105595780601f1061052e57610100808354040283529160200191610559565b820191906000526020600020905b81548152906001019060200180831161053c57829003601f168201915b5050505050905090565b60008061056e610684565b9050600061057c82866105fd565b9050838110156105c1576040517f08c379a00000000000000000000000000000000000000000000000000000000081526004016105b89061113e565b60405180910390fd5b6105ce828686840361068c565b60019250505092915050565b6000806105e5610684565b90506105f28185856108e3565b600191505092915050565b6000600160008473ffffffffffffffffffffffffffffffffffffffff1673ffffffffffffffffffffffffffffffffffffffff16815260200190815260200160002060008373ffffffffffffffffffffffffffffffffffffffff1673ffffffffffffffffffffffffffffffffffffffff16815260200190815260200160002054905092915050565b600033905090565b600073ffffffffffffffffffffffffffffffffffffffff168373ffffffffffffffffffffffffffffffffffffffff1614156106fc576040517f08c379a00000000000000000000000000000000000000000000000000000000081526004016106f3906111d0565b60405180910390fd5b600073ffffffffffffffffffffffffffffffffffffffff168273ffffffffffffffffffffffffffffffffffffffff16141561076c576040517f08c379a000000000000000000000000000000000000000000000000000000000815260040161076390611262565b60405180910390fd5b80600160008573ffffffffffffffffffffffffffffffffffffffff1673ffffffffffffffffffffffffffffffffffffffff16815260200190815260200160002060008473ffffffffffffffffffffffffffffffffffffffff1673ffffffffffffffffffffffffffffffffffffffff168152602001908152602001600020819055508173ffffffffffffffffffffffffffffffffffffffff168373ffffffffffffffffffffffffffffffffffffffff167f8c5be1e5ebec7d5bd14f71427d1e84f3dd0314c0f7b2291e5b200ac8c7c3b9258360405161084a9190610ea7565b60405180910390a3505050565b600061086384846105fd565b90507fffffffffffffffffffffffffffffffffffffffffffffffffffffffffffffffff81146108dd57818110156108cf576040517f08c379a00000000000000000000000000000000000000000000000000000000081526004016108c6906112ce565b60405180910390fd5b6108dc848484840361068c565b5b50505050565b600073ffffffffffffffffffffffffffffffffffffffff168373ffffffffffffffffffffffffffffffffffffffff161415610953576040517f08c379a000000000000000000000000000000000000000000000000000000000815260040161094a90611360565b60405180910390fd5b600073ffffffffffffffffffffffffffffffffffffffff168273ffffffffffffffffffffffffffffffffffffffff1614156109c3576040517f08c379a00000000000000000000000000000000000000000000000000000000081526004016109ba906113f2565b60405180910390fd5b6109ce838383610cc4565b60008060008573ffffffffffffffffffffffffffffffffffffffff1673ffffffffffffffffffffffffffffffffffffffff16815260200190815260200160002054905081811015610a54576040517f08c379a0000000000000000000000000000000000000000000000000000000008152600401610a4b90611484565b60405180910390fd5b8181036000808673ffffffffffffffffffffffffffffffffffffffff1673ffffffffffffffffffffffffffffffffffffffff16815260200190815260200160002081905550816000808573ffffffffffffffffffffffffffffffffffffffff1673ffffffffffffffffffffffffffffffffffffffff1681526020019081526020016000206000828254610ae79190611076565b925050819055508273ffffffffffffffffffffffffffffffffffffffff168473ffffffffffffffffffffffffffffffffffffffff167fddf252ad1be2c89b69c2b068fc378daa952ba7f163c4a11628f55a4df523b3ef84604051610b4b9190610ea7565b60405180910390a3610b5e848484610cc9565b50505050565b600073ffffffffffffffffffffffffffffffffffffffff168273ffffffffffffffffffffffffffffffffffffffff161415610bd4576040517f08c379a0000000000000000000000000000000000000000000000000000000008152600401610bcb906114f0565b60405180910390fd5b610be060008383610cc4565b8060026000828254610bf29190611076565b92505081905550806000808473ffffffffffffffffffffffffffffffffffffffff1673ffffffffffffffffffffffffffffffffffffffff1681526020019081526020016000206000828254610c479190611076565b925050819055508173ffffffffffffffffffffffffffffffffffffffff16600073ffffffffffffffffffffffffffffffffffffffff167fddf252ad1be2c89b69c2b068fc378daa952ba7f163c4a11628f55a4df523b3ef83604051610cac9190610ea7565b60405180910390a3610cc060008383610cc9565b5050565b505050565b505050565b600081519050919050565b600082825260208201905092915050565b60005b83811015610d08578082015181840152602081019050610ced565b83811115610d17576000848401525b50505050565b6000601f19601f8301169050919050565b6000610d3982610cce565b610d438185610cd9565b9350610d53818560208601610cea565b610d5c81610d1d565b840191505092915050565b60006020820190508181036000830152610d818184610d2e565b905092915050565b600080fd5b600073ffffffffffffffffffffffffffffffffffffffff82169050919050565b6000610db982610d8e565b9050919050565b610dc981610dae565b8114610dd457600080fd5b50565b600081359050610de681610dc0565b92915050565b6000819050919050565b610dff81610dec565b8114610e0a57600080fd5b50565b600081359050610e1c81610df6565b92915050565b60008060408385031215610e3957610e38610d89565b5b6000610e4785828601610dd7565b9250506020610e5885828601610e0d565b9150509250929050565b60008115159050919050565b610e7781610e62565b82525050565b6000602082019050610e926000830184610e6e565b92915050565b610ea181610dec565b82525050565b6000602082019050610ebc6000830184610e98565b92915050565b600080600060608486031215610edb57610eda610d89565b5b6000610ee986828701610dd7565b9350506020610efa86828701610dd7565b9250506040610f0b86828701610e0d565b9150509250925092565b600060ff82169050919050565b610f2b81610f15565b82525050565b6000602082019050610f466000830184610f22565b92915050565b600060208284031215610f6257610f61610d89565b5b6000610f7084828501610e0d565b91505092915050565b600060208284031215610f8f57610f8e610d89565b5b6000610f9d84828501610dd7565b91505092915050565b60008060408385031215610fbd57610fbc610d89565b5b6000610fcb85828601610dd7565b9250506020610fdc85828601610dd7565b9150509250929050565b7f4e487b7100000000000000000000000000000000000000000000000000000000600052602260045260246000fd5b6000600282049050600182168061102d57607f821691505b6020821081141561104157611040610fe6565b5b50919050565b7f4e487b7100000000000000000000000000000000000000000000000000000000600052601160045260246000fd5b600061108182610dec565b915061108c83610dec565b9250827fffffffffffffffffffffffffffffffffffffffffffffffffffffffffffffffff038211156110c1576110c0611047565b5b828201905092915050565b7f45524332303a2064656372656173656420616c6c6f77616e63652062656c6f7760008201527f207a65726f000000000000000000000000000000000000000000000000000000602082015250565b6000611128602583610cd9565b9150611133826110cc565b604082019050919050565b600060208201905081810360008301526111578161111b565b9050919050565b7f45524332303a20617070726f76652066726f6d20746865207a65726f2061646460008201527f7265737300000000000000000000000000000000000000000000000000000000602082015250565b60006111ba602483610cd9565b91506111c58261115e565b604082019050919050565b600060208201905081810360008301526111e9816111ad565b9050919050565b7f45524332303a20617070726f766520746f20746865207a65726f20616464726560008201527f7373000000000000000000000000000000000000000000000000000000000000602082015250565b600061124c602283610cd9565b9150611257826111f0565b604082019050919050565b6000602082019050818103600083015261127b8161123f565b9050919050565b7f45524332303a20696e73756666696369656e7420616c6c6f77616e6365000000600082015250565b60006112b8601d83610cd9565b91506112c382611282565b602082019050919050565b600060208201905081810360008301526112e7816112ab565b9050919050565b7f45524332303a207472616e736665722066726f6d20746865207a65726f20616460008201527f6472657373000000000000000000000000000000000000000000000000000000602082015250565b600061134a602583610cd9565b9150611355826112ee565b604082019050919050565b600060208201905081810360008301526113798161133d565b9050919050565b7f45524332303a207472616e7366657220746f20746865207a65726f206164647260008201527f6573730000000000000000000000000000000000000000000000000000000000602082015250565b60006113dc602383610cd9565b91506113e782611380565b604082019050919050565b6000602082019050818103600083015261140b816113cf565b9050919050565b7f45524332303a207472616e7366657220616d6f756e742065786365656473206260008201527f616c616e63650000000000000000000000000000000000000000000000000000602082015250565b600061146e602683610cd9565b915061147982611412565b604082019050919050565b6000602082019050818103600083015261149d81611461565b9050919050565b7f45524332303a206d696e7420746f20746865207a65726f206164647265737300600082015250565b60006114da601f83610cd9565b91506114e5826114a4565b602082019050919050565b60006020820190508181036000830152611509816114cd565b905091905056fea2646970667358221220ab94b091eca433a492236dc606f2388286850333fca02933a7976dd6bd87c10764736f6c634300080c0033",
  "immutableReferences": {},
  "source": "// contracts/MyNFT.sol\r\n// SPDX-License-Identifier: MIT\r\npragma solidity ^0.8.0;\r\n\r\nimport \"@openzeppelin/contracts/token/ERC20/ERC20.sol\";\r\n\r\ncontract MyNFT is ERC20 {\r\n\r\n    address _owner = msg.sender;\r\n    uint256 myLimit = 1000000;\r\n\r\n    //By default, ERC20 uses a value of 18 for decimals\r\n    constructor() ERC20(\"Gold\", \"GLD\") {\r\n    }\r\n\r\n    function checkMintable(uint256 amountToBeMinted) public view returns (bool){\r\n        bool mintable;\r\n        if (totalSupply() > (myLimit + amountToBeMinted)){\r\n            mintable = false;\r\n        } else{\r\n             mintable = true;\r\n        }\r\n        return mintable;\r\n    }\r\n\r\n     function myMinting(address destination, uint256 amount) public returns (bool){\r\n        require(checkMintable(amount));\r\n        _mint(destination,100);\r\n        return true;\r\n    }\r\n\r\n}",
  "sourcePath": "C:\\Users\\65911\\Desktop\\NUS\\Semester 2\\FT5004 Blockchain prog\\Blockchain-assessment\\contracts\\1_tokenContract.sol",
  "compiler": {
    "name": "solc",
    "version": "0.8.12+commit.f00d7308.Emscripten.clang"
  },
  "schemaVersion": "3.4.6",
  "updatedAt": "2022-04-27T17:45:46.997Z",
  "devdoc": {
    "kind": "dev",
    "methods": {
      "allowance(address,address)": {
        "details": "See {IERC20-allowance}."
      },
      "approve(address,uint256)": {
        "details": "See {IERC20-approve}. NOTE: If `amount` is the maximum `uint256`, the allowance is not updated on `transferFrom`. This is semantically equivalent to an infinite approval. Requirements: - `spender` cannot be the zero address."
      },
      "balanceOf(address)": {
        "details": "See {IERC20-balanceOf}."
      },
      "decimals()": {
        "details": "Returns the number of decimals used to get its user representation. For example, if `decimals` equals `2`, a balance of `505` tokens should be displayed to a user as `5.05` (`505 / 10 ** 2`). Tokens usually opt for a value of 18, imitating the relationship between Ether and Wei. This is the value {ERC20} uses, unless this function is overridden; NOTE: This information is only used for _display_ purposes: it in no way affects any of the arithmetic of the contract, including {IERC20-balanceOf} and {IERC20-transfer}."
      },
      "decreaseAllowance(address,uint256)": {
        "details": "Atomically decreases the allowance granted to `spender` by the caller. This is an alternative to {approve} that can be used as a mitigation for problems described in {IERC20-approve}. Emits an {Approval} event indicating the updated allowance. Requirements: - `spender` cannot be the zero address. - `spender` must have allowance for the caller of at least `subtractedValue`."
      },
      "increaseAllowance(address,uint256)": {
        "details": "Atomically increases the allowance granted to `spender` by the caller. This is an alternative to {approve} that can be used as a mitigation for problems described in {IERC20-approve}. Emits an {Approval} event indicating the updated allowance. Requirements: - `spender` cannot be the zero address."
      },
      "name()": {
        "details": "Returns the name of the token."
      },
      "symbol()": {
        "details": "Returns the symbol of the token, usually a shorter version of the name."
      },
      "totalSupply()": {
        "details": "See {IERC20-totalSupply}."
      },
      "transfer(address,uint256)": {
        "details": "See {IERC20-transfer}. Requirements: - `to` cannot be the zero address. - the caller must have a balance of at least `amount`."
      },
      "transferFrom(address,address,uint256)": {
        "details": "See {IERC20-transferFrom}. Emits an {Approval} event indicating the updated allowance. This is not required by the EIP. See the note at the beginning of {ERC20}. NOTE: Does not update the allowance if the current allowance is the maximum `uint256`. Requirements: - `from` and `to` cannot be the zero address. - `from` must have a balance of at least `amount`. - the caller must have allowance for ``from``'s tokens of at least `amount`."
      }
    },
    "version": 1
  },
  "userdoc": {
    "kind": "user",
    "methods": {},
    "version": 1
  }
}